:020000040000FA
:100000000A128A11EE2FFF0000308A007F08820753
:1000100008280A128A11302F0A128A112C2E0A126D
:100020008A115F2E0A128A11462E0A128A11342E64
:060030000A128A11962E4F
:100C5800831203138C1D312E322E2C2E8C1108007A
:100C68008316031391140A128A112C260A128A1168
:100C780008000134043407341034003400340034DC
:100C88000A340D348316031311150A128A112C26FF
:100C98000A128A118312031394120800831603138D
:100CA80011081F39031D592E5A2E522E14195D2E64
:100CB8005E2E522E08000A128A1152260A128A1132
:100CC8008316031311140A128A112C260A128A1188
:100CD80008007E088A007F0882000A128A116D26A1
:100CE8000A128A118000840A04087D060319003458
:100CF800FF0A0319FE0A712E8F2E0730F3007D308C
:100D0800F200F20B852EF30B852E0130F002003035
:100D1800031CF103F10270087104031D942E952E33
:100D2800812E080070088312031393000A128A1197
:100D38002C260A128A1183160313111FA42EA52E1E
:100D4800B02E0A128A1134260A128A110A128A113E
:100D58002C260A128A11962E0800003083120313DB
:100D6800B0000030AF000030AE006430AD00350890
:100D78000A128A1103200A128A11831203133708F0
:100D88000A128A1103200A128A112030F00000305A
:100D9800F1008312031338080A128A1103200A1279
:100DA8008A116430F0000030F1000A128A1180269E
:100DB8000A128A11831203133C080A128A110320AB
:100DC8000A128A11C12E0A128A1100280030FC006A
:100DD8000030FB000030FA000030F900701CF52EDE
:100DE800F62E0D2F7408F907750803110318013E34
:100DF8000319FF2EFA07760803110318013E031999
:100E0800062FFB07770803110318013E03190D2F5E
:100E1800FC070130F8000310F40DF50DF60DF70D81
:100E2800F80B0F2F01300310F30CF20CF10CF00C3F
:100E3800FF3E031D172F7308720471047004031D0D
:100E4800262F272FF22E7C08F3007B08F2007A0861
:100E5800F1007908F00008008316031387150716B8
:100E68008312031394161408F03908389400831673
:100E780003139101831203132D08B1002E08B20049
:100E88002F08B3003008B40002300310B10DB20DC2
:100E9800B30DB40DFF3E031D492F3408F30033088A
:100EA800F2003208F1003108F0000030F70000309D
:100EB800F6000030F5006430F4000A128A11EA26C0
:100EC8000A128A11730883120313A3007208A2007E
:100ED8007108A1007008A0000130A7003130A600F9
:100EE8002D30A5000030A4000A128A1186270A12A4
:100EF8008A11831203132008FF3E831603139300FD
:100F080094010800003083120313AB000030AA00DC
:100F18000030A9000030A80023082204210420047E
:100F28000319972F982FE52FAC01AC0AA82F013091
:100F3800FD000310A00DA10DA20DA30DFD0B9D2F0B
:100F48000130FD007D08AC07A31FAB2FAC2F9B2FF2
:100F58000130FD000310A80DA90DAA0DAB0DFD0B66
:100F6800AE2F23082702031DC32F22082602031DC4
:100F7800C32F21082502031DC32F20082402031CA8
:100F8800C62FC72FD62F2008A4022108031C210F23
:100F9800A5022208031C220FA6022308031C230F04
:100FA800A702281401300310A30CA20CA10CA00C5A
:100FB800FF3E031DD72F0130AC02031DE42FE52FA0
:100FC800AC2F2B08A3002A08A2002908A100280892
:100FD800A000080083133E30FD000630FE003D30BF
:100FE800FF00353084000A128A1171260A128A110C
:080FF80083010A128A11B12ED7
:04400E00D420FF3F7C
:00000001FF
